:020000040800F2
:1000000010720020D1030008D90300087D03000806
:10001000DD030008DF030008E10300080000000022
:10002000000000000000000000000000E3030008E2
:10003000E503000800000000CB020008F776000886
:10004000EB030008EB030008EB030008EB030008D8
:10005000EB030008EB0300087D290008072A0008CD
:10006000192A00082B2A00083D2A0008EB03000883
:10007000EB030008EB030008EB030008EB030008A8
:10008000EB030008EB030008EB030008EB03000898
:10009000EB030008EB030008EB0300084F2A0008FD
:1000A000EB030008EB030008EB030008EB03000878
:1000B000EB030008EB030008EB030008EB03000868
:1000C000EB030008EB030008EB030008EB03000858
:1000D000EB030008DD800008F58000080D810008B2
:1000E0008F290008EB030008EB030008EB0300086E
:1000F000EB030008EB030008EB030008EB03000828
:10010000EB030008EB030008EB030008EB03000817
:100110007980000891800008EB030008EB030008D9
:10012000EB030008EB030008EB030008EB030008F7
:10013000EB030008EB030008EB030008EB030008E7
:1001400000000000000000000000000000000000AF
:10015000EB030008EB030008EB030008EB030008C7
:10016000EB030008EB030008EB030008EB030008B7
:10017000EB030008EB030008EB030008EB030008A7
:10018000EB03000800F002F800F071F80AA090E814
:10019000000C82448344AAF10107DA4501D100F042
:1001A00066F8AFF2090EBAE80F0013F0010F18BF9E
:1001B000FB1A43F001031847B8490200D84902006E
:1001C0000A444FF0000C10F8013B13F0070408BF7D
:1001D00010F8014B1D1108BF10F8015B641E05D01B
:1001E00010F8016B641E01F8016BF9D113F0080FD0
:1001F0001EBF10F8014BAD1C0C1B09D16D1E58BF62
:1002000001F801CBFAD505E014F8016B01F8016B98
:100210006D1EF9D59142D6D370470000002300240B
:1002200000250026103A28BF78C1FBD8520728BF06
:1002300030C148BF0B607047642900F0DB8173292F
:1002400000F0B385002070471FB521F014FB00F0CB
:1002500039FE04000020002120F0A8FC401C606052
:1002600000F046FE1FBD10B500F0ABFE10BD00F063
:10027000F9FE1146FFF7E8FF01F022FA01F0C2F89B
:1002800003B4FFF7F0FF03BC0BF064F8002804D0C0
:1002900090FAA0F0B0FA80F0401C7047EFF31080A5
:1002A00072B6704780F310887047424A1368012B7A
:1002B00004D04FF0010313603F4A10603F4A1160C1
:1002C0003F484FF0805101607047EFF3108272B6E3
:1002D0003848016851B34FF00001016036480168A9
:1002E00091B1EFF309811EF0100F08BF21ED108BC3
:1002F00021E9F00F4FF000041EF0100F08BF012499
:1003000041F8044D006801602C490968096808C972
:10031000B1E8F00F002B18BFB1EC108B81F3098806
:100320004EF0100E002B18BF2EF0100E82F3108826
:100330004EF0040E704721490860EFF3148222F05A
:10034000040282F314881C494FF000000860194928
:100350004FF0010008601B481B49D0F8002041EA1B
:100360000201016016484FF0805101601748006893
:10037000006880F3088861B662B670471EF0040F0B
:100380000CBFEFF30880EFF3098020E9F00F40F88D
:1003900004ED40F804ED1EF0040F0CBF80F3088854
:1003A00080F3098800B517F0E9FE5DF804EB4EF024
:1003B000040E704738050020300500203405002069
:1003C00004ED00E020ED00E00000FFFF08ED00E09C
:1003D0000948804709480047FEE7FEE7FEE7FEE7D9
:1003E000FEE7FEE7FEE7FEE7FEE7FEE70448054915
:1003F000054A064B70470000097700088501000890
:10040000106C002010720020106E0020106E002072
:1004100070477047704753EA020C00F069802DE97D
:10042000F04B4FF00006002B1FBFB3FA83F503FA21
:1004300005F424FA05F65E4012BF1643B2FA82F5BF
:1004400002FA05F4C5F120051EBF22FA05FC44EAB4
:100450000C04203556EA044C4FEA144418BF641CBF
:100460004FF000084FF00009904271EB030C39D3B4
:10047000002919BFB1FA81F701FA07F6B0FA80F73F
:1004800000FA07F6C7F120071EBF20FA07FC46EA6C
:100490000C062037B6FBF4FCA7EB0507103F07F06E
:1004A0001F0BCBF120060CFA0BFB2CFA06F644BF0F
:1004B000B3460026202FA4BF5E464FF0000B5BEA38
:1004C000060C08BF4FF0010B19EB0B09ABFB027CCC
:1004D00048EB0608C01B06FB02CC0BFB03CC71EB00
:1004E0000C01C1E70B46024641464846BDE8F08B89
:1004F00013B54FF000004FF00001AFF30080BDE8EE
:100500001C4070470FB4044910B503AA029800F0CC
:1005100051FC10BC5DF814FB046B00200FB47CB5DB
:100520000C0009AA009001D02044401E084B7B44D7
:1005300069460190089800F006FC05461CB10020B1
:10054000694600F013FC28467CBC5DF814FB0000F3
:100550004508000070B5044685690068C10601D5EC
:10056000302600E02026C00707D070BDD4E9012165
:1005700030469047206A401C20626D1EF6D570BD43
:1005800070B5044685690078C00707D170BDD4E90D
:10059000012120209047206A401C20626D1EF6D564
:1005A00070BD70B50C460546012A05D02878800636
:1005B00000D5EA69002302E0012305E05B1C9342B9
:1005C00002D2E05C0028F9D1A869E618C01AA86137
:1005D000286A184428622846FFF7BCFF04E0D5E9E2
:1005E000012114F8010B9047B442F8D32846FFF7D5
:1005F000C7FF70BD2DE9F04106460024106875293B
:10060000314616A510D0AFF30080002802DA404230
:1006100013A507E031688A0701D512A502E0490752
:1006200004D511A5012401E0AFF3008000210A22C6
:1006300006F1240709E0B0FBF2FCB0FBF2F302FB89
:100640001C00303078541846491C0028F3D123464A
:100650002A463046BDE8F04100F017BB000000001C
:100660002D0000002B000000200000002DE9F05FAD
:10067000894604464FF0000ADFF824B1FB44C0F875
:1006800020A02046E168884700287DD0252806D094
:10069000D4E901219047206A401C2062F1E700253F
:1006A0005F462046E16888472028064607DB312E52
:1006B00005D2B81910F8200C08B10543F1E7A807D6
:1006C00001D525F00405C4F81CA00027C4F818A023
:1006D0002A2E09D030460AF0F3F938B304EB870824
:1006E000303EC8F8186019E059F8041B204604EBA6
:1006F00087029161E1688847012F064618D1E069B9
:10070000002820DA25F020051DE0D8F8180000EBBD
:10071000800006EB40003038C8F818002046E16839
:10072000884706460AF0CCF90028EED1012F0AD0FE
:100730002E2E08D12046E16888477F1C0646022FEE
:1007400045F02005C4DBA069002803DA404245F0EB
:100750000105A061E80701D025F01005A6B1A6F1BA
:100760004100192802D8203645F400654A46314632
:10077000204625604D46FFF75FFD60B1012807D098
:10078000ED1D25F0070000E007E000F1080978E71B
:1007900005F1040975E730467AE7206ABDE8F09F65
:1007A0001929020070B5064600F060FA0468054693
:1007B00030460A22002100F002F82C6070BD2DE9BD
:1007C000F04791460F4680460446002614F8015B28
:1007D0002DB100F043FA0068405DC007F6D12B2D23
:1007E00002D02D2D18D0641E4A463946204600F00E
:1007F000F3FA27B13968A14201D1C7F800804FF060
:10080000020471050BD54042002803DD00F02EFAEA
:100810000460A007BDE8F08746F48066E4E700289E
:10082000F8DA00F023FA04606FF00040F2E700000D
:10083000014A00F021BB00001C10002030B5054625
:100840000B462A4613F8014B12F8010B08B1A042DF
:10085000F8D01CB1002802D06D1CF1E7284630BD4D
:1008600040EA010310B59B070FD1042A0DD310C82D
:1008700008C9121F9C42F8D020BA19BA884201D97F
:10088000012010BD4FF0FF3010BD1AB1D30703D0C7
:10089000521C07E0002010BD10F8013B11F8014B7D
:1008A0001B1B07D110F8013B11F8014B1B1B01D199
:1008B000921EF1D1184610BD40EA0103024630B540
:1008C0009B0710D14FF0013400E008C208C91D1B7E
:1008D0009D4315EAC41FF8D013F0FF0102F8011B75
:1008E0000DD01B0AF8E711F8013B002B02F8013B81
:1008F00005D011F8013B002B02F8013BF3D130BDCC
:1009000010B5431C02E010F8011B71B18107FAD148
:100910004FF0013202C88C1A8C4314EAC211F9D08C
:10092000C01A0A0603D0C01E10BDC01A10BD0A04AA
:1009300001D0801E10BD0902FCD0401E10BD40EA4F
:10094000010370B59B072ED14FF00136042A2AD33C
:1009500008C810C99D1B9D43121F15EAC61517D064
:10096000D8B2E1B2401A50EA056110D198B2A1B2F2
:10097000401A50EA05410AD123F07F4024F07F411C
:10098000401A50EA052102D1180EA0EB146070BD88
:10099000A342DBD018BA21BA884201D9012070BD28
:1009A0004FF0FF3070BD0AB9002070BD10F8013B58
:1009B00011F8014B63B1A3420AD1521E08D010F8BE
:1009C000013B11F8014B1BB1A34201D1521EEDD1E5
:1009D000181B70BD421E12F8013F002BFBD111F80D
:1009E000013B002B02F8013BF9D17047032A40F28A
:1009F000308010F0030C00F0158011F8013BBCF1C1
:100A0000020F624498BF11F801CB00F8013B38BFD8
:100A100011F8013BA2F1040298BF00F801CB38BFE6
:100A200000F8013B11F0030300F02580083AC0F004
:100A3000088051F8043B083A51F804CBA0E80810AC
:100A4000F5E7121D5CBF51F8043B40F8043BAFF3DF
:100A50000080D20724BF11F8013B11F801CB48BF39
:100A600011F8012B24BF00F8013B00F801CB48BF6F
:100A700000F8012B704710B5203AC0F00B80B1E8A8
:100A80001850203AA0E81850B1E81850A0E81850C3
:100A9000BFF4F5AF5FEA027C24BFB1E81850A0E8CC
:100AA000185044BF18C918C0BDE810405FEA827CE6
:100AB00024BF51F8043B40F8043B08BF7047D207FD
:100AC00028BF31F8023B48BF11F8012B28BF20F89E
:100AD000023B48BF00F8012B704702F0FF0343EAD6
:100AE000032242EA024200F002B84FF00002042959
:100AF000C0F0128010F0030C00F01B80CCF1040C4D
:100B0000BCF1020F18BF00F8012BA8BF20F8022B80
:100B1000A1EB0C0100F00DB85FEAC17C24BF00F826
:100B2000012B00F8012B48BF00F8012B70474FF054
:100B3000000200B5134694469646203922BFA0E82D
:100B40000C50A0E80C50B1F12001BFF4F7AF090739
:100B500028BFA0E80C5048BF0CC05DF804EB89002A
:100B600028BF40F8042B08BF704748BF20F8022B6D
:100B700011F0804F18BF00F8012B704710B50446E4
:100B800010F0030F08BF11F0030F40F015804FF075
:100B9000013E121FC0F20E8051F8043BA3EB0E0C75
:100BA0002CEA030C1CEACE1C08BF40F8043BF0D032
:100BB000A1F1040102F10402521E08DB11F8013B0D
:100BC000002B00F8013BF7D11146FFF78EFF2046BE
:100BD00010BD00004FF0013C50F8042B51F8043BCD
:100BE0009A4221D1A2EB0C03934313EACC1317D101
:100BF00050F8042B51F8043B9A4215D1A2EB0C0398
:100C0000934313EACC130BD150F8042B51F8043B57
:100C10009A4209D1A2EB0C03934313EACC13DBD025
:100C20004FF00000704700BFD01A01BAB1FA81F14D
:100C300001F0180122FA01F0CB40C1F12001DBB232
:100C4000C0B2C01A2CFA01F3D11A914311EAC311B0
:100C5000E6D17047704770477047000010B500F04C
:100C600031F9001D10BD00BF45FF0100004870476D
:100C7000AC6B002010B5FFF7F9FF006810BD10B590
:100C80000446FFF7F3FF046010BD2DE9F0470D4661
:100C900099469246044600F124080168880604D566
:100CA000E06921F01001216000E00120A84201DD8F
:100CB000471B00E00027A1697A1902EB0900081A16
:100CC000A0612078C00602D42046FFF743FC00262E
:100CD00008E0D4E901211AF806009047206A401C78
:100CE000761C20624E45F4DB2078C0060AD52046EB
:100CF000FFF730FC06E0D4E9012130209047206A5C
:100D0000401C2062381EA7F10107F4DC07E0D4E99B
:100D1000012118F805009047206A401C2062281E17
:100D2000A5F10105F3DC2046FFF72AFC2078000638
:100D300002D50220BDE8F0870120FBE701694A1CCB
:100D400002610878704700B58FB0CDE9013100210C
:100D5000059105497944CDE9031011466846FFF72E
:100D600085FC0FB000BD0000E5FFFFFF0A6802F838
:100D7000010B0A607047D1E900239A4202D2531C4A
:100D80000B601070704710B5436913B1AFF300806A
:100D900001E0FFF706FC012010BD127800F12401EC
:100DA0000A7000224A700122EDE711684FF0FF320D
:100DB000E9E70000074B70B50D467B44FFF7C3FF22
:100DC0000446284600F090F810B14FF0FF3070BD97
:100DD000204670BDAF1801002DE9F05F8246154630
:100DE0008B4600270AF10104B9460078302801D06B
:100DF0009DB113E014F8010B0127782803D058287F
:100E000001D045B10AE00DB1102D07D1002714F82B
:100E1000010B102502E0082500E00A250026B04657
:100E20000EE005FB080005FB06F101271FFA80F81C
:100E300001EB1046B6F5803F00D3B94614F8010B1C
:100E4000294600F043F80028EBDABBF1000F05D08B
:100E50000FB1641E00E05446CBF80040B9F1000F1A
:100E600006D0FFF703FF02210160C81EBDE8F09F16
:100E700048EA0640FAE700002DE9F04115460E4623
:100E8000040002D12C6804B90BA4204600F0DCF861
:100E90000444207870B127463146384600F0C4F843
:100EA0000444207810B1002004F8010B38462C606F
:100EB000BDE8F0810027F9E7000000000048704716
:100EC000AC6B002000487047CC6B00203A2800D261
:100ED000303820F02002412A01D3A2F137008842A5
:100EE00001D34FF0FF307047007B00F08000704767
:100EF00010B542485421FFF71AFE41485421FFF72C
:100F000016FE40485421FFF712FE3F493B483C4A39
:100F10003F4B08603D490A603A491960531C03651C
:100F2000481C1065012008653B48344A39A17844C3
:100F300000F0CCF920B9384878440A3800F06BFA50
:100F400037482F4A35A1784400F0C0F920B9344819
:100F500078440A3800F05FFA32482A4A2FA17844D0
:100F600000F0B4F920B92F4878440A3800F053FA59
:100F700040232248DC000021224600F083F920B102
:100F800025487844543800F046FA1D48224640234C
:100F9000002100F077F920B121487844543800F05E
:100FA0003AFA184822461023002100F06BF9002875
:100FB00006D01C487844BDE81040563800F02BBAE3
:100FC00010BD104870B5006D20F001040B4800F012
:100FD000F3F90B4800F0F0F90A4800F0EDF909E0E8
:100FE000206D20F00105204600F0E6F9204611F0C2
:100FF0004AFB2C46002CF3D170BD0000B06A0020E3
:10100000046B0020586B00202010002024100020CA
:101010002810002072000000530C0200770000002E
:10102000410C0200300C020030B503461D781DB1A2
:101030000A4603E0AC4201D1181A30BD12F8014B48
:10104000002CF7D15B1CF1E730B503461D783DB1AC
:101050000A4612F8014B1CB1AC42FAD15B1CF5E711
:10106000181A30BD7546FFF729FFAE4605006946E0
:10107000534620F00700854618B020B5FFF7B6F9B3
:10108000BDE820404FF000064FF000074FF0000889
:101090004FF0000B21F00701AC46ACE8C009ACE80A
:1010A000C009ACE8C009ACE8C0098D4670472DE91D
:1010B000F04705460C46C86820F4201040F4800034
:1010C000C860800602D5084600F07FFAE06841F269
:1010D00082014FF0FF390140022903D0204600F081
:1010E0001DFAB5E000F42041B1F5004F0FD1C00367
:1010F00006D56168E06A884200D80846606006E06C
:101100002069E062606060690AF02CF9A061A06863
:101110000022EEB200280DDAE1688B050AD4C04344
:10112000A06041F490302260E0606068411C616022
:101130000670A5E0E0689046226040F40050E06050
:10114000206968BB60690AF047F9012704F12405AA
:10115000A0B1A08910F4407F08D0E06913F04FFBE4
:10116000206118B1E06840F4006016E0E761256195
:10117000E06820F4407040F480600EE0E06913F015
:101180003EFB00282061F1D0E06840F4006010F4DC
:10119000407FE06002D140F48070E06020696060D0
:1011A000E06825696FF0010AC1051FD56168E06A32
:1011B000884200D80846411B04D02246284600F049
:1011C000B7F9F0BBE068010203D5E562C4E9015854
:1011D00054E0691CE1626160E16940F48030491EBD
:1011E000C4E9021030462E70BDE8F087010202D536
:1011F00000F480320AE06068411C61600670E068BB
:101200000A2E40F48030E06006D00022E16A606877
:10121000814203D90B4602E00122F7E70346A78982
:101220005B1B7F0503D4E7699F4200DDE2B1814289
:1012300000D80146E5620F1AC4E90158002B09DD08
:1012400000E005E022461946284600F071F908B191
:101250004846C9E747B1A069E5626560C01BA06167
:10126000E06840F01000E060E068000208D56168C6
:10127000A069E562491B08446560A0615046B3E778
:101280003046B1E770B5C468A50713D0650211D424
:10129000B2F5807F09D0B2F5007F06D0B2F5806F3D
:1012A00008D1012300F1240106E05D1E6FF07F46A6
:1012B000B54201D3012070BD0161C361416024F4D6
:1012C00070611143C160002070BD00002DE9F04144
:1012D0000C4607461646104600F06EF82078611C52
:1012E00061280AD0722802D077283CD102E001257B
:1012F000002405E00225042402E0082448F2020547
:1013000011F8010B2B2806D0622809D011F8010C26
:1013100074280AD00BE045F0030544F00204EFE71F
:1013200045F0040544F00104EAE744F010043846AF
:1013300021460AF05BF8411C15D000213161716033
:101340004FF40071F560F1617061200704D53046FB
:101350000222002100F066F8306D40F00100306597
:101360003046BDE8F0810020FBE72DE9F0410D4655
:101370000646104C206DC10704D0410804D020F06F
:101380000104F7E722460EE0542013F038FA070074
:101390000ED0206D47F001010843542120653846E6
:1013A000FFF7C5FB3A4629463046BDE8F0418DE7D8
:1013B0000020D6E7B06A00202DE9F04704464FF040
:1013C00000094FF0FF37C568D4E90486A80707D0A5
:1013D000204600F0D7F8304609F082FF002802DAF4
:1013E0003846BDE8F087280502D5404611F04BF994
:1013F0004C212046FFF79BFB206D20F0010020656B
:101400004846EEE710B50446AFF300802046BDE83D
:101410001040FEF735BF10B500F0FEF8BDE81040F3
:1014200000F0F4B82DE9F041044616460D46476930
:10143000007B80072ED0384609F0CEFF50BB3EB36C
:10144000012E02D0022E25D104E0204600F0FEF845
:1014500005441DE0384609F085FFE168002841F0A9
:101460001001E16005DA204600F058F80120BDE8DF
:10147000F081C9030BD56268E16A914200D8114638
:10148000A26911442269891A814200DD0846054497
:10149000002D01DA0220EAE7E16A6068E268814231
:1014A00006D29103E06203D522F4003141F010022C
:1014B000A6690027AE4213DCE16A814201D90B46DE
:1014C00000E0034603EB060C2369ACEB030CAC45D0
:1014D00006DD814201D98C4600E084469C4505D159
:1014E000A760276042F02000A5620DE0AD1BE66911
:1014F000AE1B8142A66000D90846C01A281A206097
:101500005819606022F0200003490840E060002084
:1015100084F84870ABE70000BFCFD7FFC16821F463
:10152000001141F08001C1600021816001607047BD
:101530002DE9F047814614460E464FF0FF383248F9
:10154000D5685769054209D03846A16909F0A4FF5A
:10155000002811DB2C48C0430540E5602B4632468D
:101560004946384609F0D2FFA16920F00042B21A7C
:1015700011440028A16103D02046FFF7CFFF404669
:10158000BDE8F08770B504460569C06A61688842A5
:1015900000D80846E16821F42011E160C90312D5A2
:1015A000A84208D02246411B2846FFF7C1FF10B1D0
:1015B0004FF0FF3070BD0020E562C4E90150E068E3
:1015C00020F48030E060002070BD10B50446C06893
:1015D00020F02000E060A16AA06988420DD020467A
:1015E000FFF7D0FFE06820F4405040F01000E060CA
:1015F000A06AA0612069E062606044F24001E06896
:101600008843E06010BD000010000200002801D0F7
:1016100009F0A0BE7047000010B5014602A000F01E
:1016200036F8012010BD000053494752545245443A
:101630003A2052656469726563743A2063616E276B
:1016400074206F70656E3A200000000010B50146EE
:10165000C268900703D0900607D5886A0AE0FFF7B2
:1016600005FB01210160881E10BD8B694868184484
:101670000B69C01A91F848301BB191F84910401A13
:1016800010BD1103FCD50028FADD401E10BD70B559
:1016900005460C460A2000E06D1C0AF0DDF835B165
:1016A00028780028F8D102E0641C0AF0D5F814B1BB
:1016B00020780028F8D1BDE870400A200AF0CCB8A4
:1016C00010B51BF0CBFE002010BD00002DE9F04747
:1016D00090B00746894690461E4614210BA8FFF796
:1016E00026FA142106A8FFF722FA7C218448FFF786
:1016F0001EFA8448007E012804D18348006880498E
:10170000086104E08148D0F80A007D4908617F48FB
:10171000D0F80E007A4988677A48007E012805D102
:10172000022177486C3000F02BFE19E078480078F1
:10173000012805D1032172486C3000F021FE0FE032
:10174000744890F806020B2805D103216C486C30D0
:1017500000F016FE04E0022169486C3000F010FE33
:101760006848007E01280FD1002000F06FF905467F
:101770001DB9002010B0BDE8F087052205F10B016E
:101780005F481C3005F08EFF6248406B5C49486141
:1017900039465B48303000F09BFE5A48007E0128F5
:1017A00019D1002008F06BF8012828D1574890F88B
:1017B00041000106554890F8420041EA0041534873
:1017C00090F8430041EA0020504991F84410084342
:1017D0004B49086013E04D4890F8410001064B4822
:1017E00090F8420041EA0041484890F8430041EA3D
:1017F0000020464991F84410084341490860494691
:101800003F48623000F0BCFD41463D48001D00F0FD
:10181000B7FD4048D0F80202394988613D4890F848
:10182000381090F8392090F83A3090F83C00CDE923
:10183000023204910190374890F83D0000903548FD
:1018400090F83E00A0F1640333A214210BA8FEF728
:1018500065FE0446601C28B9214637A017F05AF9E6
:10186000002087E72B4890F83F1090F8402090F830
:10187000413090F84300CDE90232049101902548AF
:1018800090F844000090234890F84500A0F16403CC
:1018900021A2142106A8FEF741FE0446601C28B9C7
:1018A000214625A017F036F9002063E714220BA982
:1018B00013483A30FFF79AF8142206A910484E3020
:1018C000FFF794F820210E4880F8611080F84D1041
:1018D0004FF47A70B6FBF0F100FB116010B94FF4D1
:1018E0007A7005E04FF47A70B6FBF0F100FB1160FE
:1018F0008246034A022104F041FF01203AE700003A
:10190000D4420020B04300202C040020385A00208C
:10191000845A00205C3800203230253032642D2576
:101920003032642D253032642D253032642D25303F
:1019300032642D2530326400736E7072696E746685
:10194000206572726F722C20746865206C656E2041
:10195000697320256400000010B500200A498880C2
:10196000C880088148817C2107480C30FFF7DFF8E8
:101970007C2105488830FFF7DAF87C210348FFF71F
:10198000D6F8012010BD0000E03F0020E440002018
:101990002DE9FE4F04460E4601F0A0F80746002050
:1019A0000290019014B1062E00DB17B90020BDE8AB
:1019B000FE8FA57894F803806078217840EA0129A9
:1019C00045F6A520814534D1E81CB04201D0002065
:1019D000EDE7B8F1830F2CD16079217940EA012A33
:1019E000A07940064FEA106BE01D0090BAF5805FC9
:1019F00019D1A81C215C681C205C41EA00200190E0
:101A0000A81C205C00F07F00029039799DF8080046
:101A100061F3DF1000F580500199884208D102A8D7
:101A200000F036FC04E05A465046009900F03CFCB9
:101A300000BF0120BBE7000001460A2901DD0020AC
:101A400070470148405CFBE7EB25002010B50446D9
:101A5000204600F03BF810BD0146022901DB0020C2
:101A6000704701EBC10000EB0110024A02EBC0001D
:101A7000401CF5E7D543002001480078704700007E
:101A80007000002001460A2901DD0020704701484E
:101A9000405CFBE7E12500200146022901DB002034
:101AA0007047C1EBC100024A12F82000F8E70000BD
:101AB000FC2E00200148407D70470000E0250020FA
:101AC0000148007870470000E025002010B504466A
:101AD000022C01DB002010BD04EB440000EBC4002D
:101AE000044A02EB800110220348FEF77FFF024800
:101AF000F1E70000D62B0020722D002001460229BC
:101B000001DB002070470148405CFBE784000020B7
:101B10000146074890F83200884201DC00207047F7
:101B2000C1EB811000EB4000024A02EBC000F6E777
:101B30004E030020F019002010B53D484089401C9C
:101B40003B4948814FF6FF7008810846008888802D
:101B500008468088401EC880084680884FF47A7105
:101B600090FBF1F201FB120008B9084607E030488B
:101B700080884FF47A7190FBF1F201FB120084B27D
:101B80002B4A0C320121204604F0F8FD7C22284922
:101B90000C3101F1F800FEF76EFF2548C0880028DF
:101BA00019DD2348C0884FF47A7190FBF1F201FBF4
:101BB000120008B9084607E01D48C0884FF47A7142
:101BC00090FBF1F201FB120084B2194A8832012124
:101BD000204604F0D3FD1648808820B9002115481E
:101BE00000F07AFE22E01248808801280FD11249C5
:101BF0000F480C3000F066FD0D4841894FF4FC5051
:101C000004F04EFC00210C4800F066FE0EE00B498B
:101C100007480C3000F056FD054841894FF4F85054
:101C200004F03EFC0021054800F056FE012010BDE6
:101C3000E03F0020180D0020040D0020F00C0020D3
:101C400070B5044640E038484089401C3649488118
:101C50000846808808810846C08888800846C08871
:101C6000401EC8807C220C3101F1F800FEF703FF12
:101C70007C222D498831A1F17C00FEF7FCFE2A4828
:101C8000C08800281FDD28484089B0F57A7F1ADA1D
:101C90002548C0884FF47A7190FBF1F201FB1200E5
:101CA00008B9084607E02048C0884FF47A7190FBD5
:101CB000F1F201FB120085B21B4A8832012128464D
:101CC00004F05CFD00E004E0201EA4F10101CCB2B0
:101CD000B9D100BF1448C08820B113484089B0F57D
:101CE0007A7F0FDB114910480C3000F0EBFC0E48F6
:101CF00041894FF4FC5004F0D3FB00210B4800F065
:101D0000EBFD0EE00A4908480C3000F0DBFC064809
:101D100041894FF4F85004F0C3FB0021044800F05F
:101D2000DBFD012070BD0000E03F0020040D00201D
:101D3000F00C002070B5044652E045484089401E32
:101D40004349488108468088C880084600898880C1
:101D50007C220C3101F17C00FEF78DFE7C223D4996
:101D6000A1F1F800FEF787FE39480089002823DD3D
:101D7000374800893649096888421DD834480089A7
:101D8000401C33490881084600894FF47A7190FB62
:101D9000F1F201FB120008B9084607E02C4800895F
:101DA0004FF47A7190FBF1F201FB120085B2294ADF
:101DB0000121284604F0E2FC2548008928B1244886
:101DC00000892349096888420AD923480078401CC1
:101DD0002149087000201E4908810120488104E043
:101DE000201EA4F10101CCB2A7D100BF1A4800788F
:101DF00002280DD11648008950B900201749887073
:101E00000021174800F068FD0020134908701CE00D
:101E10000F4880884FF6FF71884207D100200F4994
:101E2000887000210E4800F057FD0EE00D4908486B
:101E30000C3000F047FC064841894FF4F85004F09C
:101E40002FFB0021074800F047FD012070BD000076
:101E5000E03F0020E4400020080E0020D00D0020CC
:101E6000D40A0020F00C002002460A2A01DD0020DE
:101E700070470248815400BFFAE70000EB250020BC
:101E800001460D4890F83200884201DC002070477E
:101E9000094890F83200012804D10020074A107048
:101EA000074A107000220548401C42540A30425430
:101EB000113042540120EAE74E030020E0250020C3
:101EC0007000002010B5022800DB10BDC0EBC0027E
:101ED000054B03F822100022C0EBC003024C04EBB8
:101EE00083031A7600BFF0E7FC2E0020014602486B
:101EF0004175012070470000E025002002460229BC
:101F000001DA022A01DB00207047024881540120D7
:101F1000FAE700004C0300200246032901DA022AF6
:101F200001DB00207047024881540120FAE70000DD
:101F30008400002010B504464648007850B90120BE
:101F4000444908701AF094FC434908601AF090FC68
:101F5000424908604248007820B91AF089FC3E499D
:101F600008600AE01AF084FC3B4908601AF080FC23
:101F70003A4908600120374908700020FFF75CFDEE
:101F8000012865D13448006834490968884205D37E
:101F90003148006831490968401A06E02F48006856
:101FA000C0F1FF302C4909680844A04210D92948E3
:101FB000007801280CD1284800682849086007F0FB
:101FC000A7F90220234908700020264908703FE045
:101FD0002148006821490968884205D31E480068E5
:101FE0001E490968401A06E01C480068C0F1FF302D
:101FF00019490968084443F69821884219D91548B7
:102000000078022815D1144800681449086007F0C8
:102010007FF914480078401C12490870084600787F
:10202000062815DD0020FFF72BFF01200949087065
:102030000EE00848007803280AD11AF019FC064976
:1020400008601AF015FC0549086001200149087074
:10205000012010BD8D00002040030020440300201B
:102060005C3800203C03002010B51AF001FC124936
:1020700008600846006811490968401A40F6B831FE
:1020800088420FD20C4800680C4908600C48007860
:10209000401CC0B20A49087003280ADB00200870FF
:1020A000012010BD0448006804490860002004496C
:1020B00008700020F5E70000A80D0020AC0D0020FE
:1020C000A40D002070B505460C4616460CB900203C
:1020D00070BD0321064881766178207841EA0021AD
:1020E0000348C1610021034800F0F6FB0120EFE73F
:1020F0005C380020C00A002010B504210648817613
:102100000021C1610220054988700021044800F0C7
:10211000E3FB012010BD00005C380020D00D002042
:10212000C00A00200146992901DD0020704701F016
:102130000F000B1103EB830300EB4300C2B2104608
:10214000F4E7000010B50B480078012810D10A48C8
:102150000BF0FAFA01280BD1022006490872002080
:10216000087006488078022802D100200349887050
:10217000012010BD845A00205C380020D00D0020C2
:1021800010B50020034908600A46022104F0F6FA5F
:10219000012010BDE03F002070B506460C461546F4
:1021A0000CB1042D01D0002070BD207800066178AC
:1021B00040EA0140A17840EA0120E178084309495A
:1021C000086225220021084800680EF0AFFF252391
:1021D000044A0021044800680FF050F902F050FD55
:1021E0000120E1E7B0430020D40D002010B500200D
:1021F000FFF748FC01280BD01F480078401CC0B2F4
:102200001D490870072803DD0020087004F060FFF6
:10221000FFF756FC012801D002F072FAFFF750FCDC
:10222000012801D0002010BD00241DE02046FFF74A
:1022300029FC01280ED03CB91048028C00F1220183
:10224000204601F049FF05E042F248620CA1204619
:1022500001F042FF2046FFF715FC012802D020467E
:1022600004F02AFF601CC4B2044890F83200A04277
:10227000DCDC0120D7E70000200400204E03002012
:102280003131342E35352E3138362E32303600008D
:1022900070B5054600F022FC04460CB9A06810B1E8
:1022A0002846A168884770BD2DE9F04105460E46D5
:1022B00017460DB106B117B90020BDE8F081002422
:1022C00014E00C4830F83400A8420DD1094800EB66
:1022D000C400406840B1074800EBC4003A463146AC
:1022E000436828469847E8E7601CC4B2102CE8D33E
:1022F0000120E2E7E824020837B5A4B0044600F064
:10230000EDFB054615B9002027B030BD782106A8A1
:10231000FEF70DFC9DF894009DF895109DF8962011
:102320009DF89830CDE90132CDE903109DF8990070
:1023300000909DF89A0000F26C7308A2782106A81C
:10234000FEF7ECF8217941F2050242EAC1101E22A3
:1023500006A904F0CDF80120D6E70000253034644A
:102360002D2D253032642D2D253032642D2D253034
:1023700032643A3A253032643A3A25303264000009
:102380002DE9F04106460D46002400F0A7FB074664
:10239000132D00DA17B90020BDE8F081002417E002
:1023A00004EB44000D4911F82000A8420ED104EBC3
:1023B00044000B4603EB8000028904EB440003EB6E
:1023C000800041683046FEF711FB03E0601CC4B298
:1023D000132CE5DB00BF0120DEE70000EC08002045
:1023E0002DE9F04106460D46002400F077FB074634
:1023F000132D00DA17B90020BDE8F081002417E0A2
:1024000004EB44000D4911F82000A8420ED104EB62
:1024100044000B4603EB8000027A04EB440003EB1C
:1024200080004168304604F063F803E0601CC4B2E9
:10243000132CE5DB00BF0120DEE70000EC080020E4
:1024400037B5A4B0044600F049FB054615B9002095
:1024500027B030BD782106A8FEF769FB9DF89400EF
:102460009DF895109DF896209DF89830CDE90132A1
:10247000CDE903109DF8990000909DF89A0000F2B4
:102480006C730BA2782106A8FEF748F81E2206A955
:10249000204604F02DF84FF6C07204EA02013031F4
:1024A00088B24FF6FF7105F097F80120D0E70000E1
:1024B000253034642D253032642D253032642025BA
:1024C0003032643A253032643A25303264000000FC
:1024D0002DE9F04106460D46002400F0FFFA0746BC
:1024E000142D00DA17B90020BDE8F081002417E0B0
:1024F00004EB44000D4911F82000A8420ED104EB72
:1025000044000B4603EB8000028904EB440003EB1C
:10251000800041683046FEF769FA03E0601CC4B2EF
:10252000142CE5DB00BF0120DEE70000D00900200D
:1025300010B56048007E01287ED10020FFF7A2FA86
:10254000B0B10020FFF778FA90B100205A49087026
:10255000084600785949097888421BD056480078C7
:1025600056490870012142F2600003F085FF11E036
:10257000012051490870084600785049097888427E
:1025800008D04D4800784D490870002142F26000A3
:1025900003F072FFFFF770FA60B94948007801282C
:1025A00008D1002142F2500003F066FF00204449A8
:1025B00008707CE0FFF760FA18B1FFF75DFA632856
:1025C00012D100203C494870084640783B49497880
:1025D00088426CD03848407838494870002142F22F
:1025E000500003F049FF62E0FFF746FA012811D1DD
:1025F000314948700846407830494978884256D079
:102600002D4840782D494870012142F2500003F0D6
:1026100033FF4CE0FFF730FA142814DA0220264981
:102620004870084640782549497888423FD022487A
:1026300040782249487000E02FE0022142F2500029
:1026400003F01AFF33E0FFF717FA192812DA032014
:10265000194948700846407818494978884226D078
:102660001548407815494870032142F2500003F0A4
:1026700003FF1CE0042010494870084640780F49C9
:102680004978884213D00C4840780C49487004219E
:1026900042F2500003F0F0FE09E00A2142F260002D
:1026A00003F0EAFE1E2142F2500003F0E5FE012095
:1026B00010BD0000B0430020140E0020160E0020B4
:1026C000180E002070B504460D467C216D48FEF7BB
:1026D0002EFA207C0006218A01F47F4140EA012085
:1026E000216901F47F0140EA1120216940EA11606B
:1026F000644908600A2204F16C016248001DFEF77B
:10270000BAF9142204F11C015E480E30FEF76EF98E
:10271000207D0006A18A01F47F4140EA0120616921
:1027200001F47F0140EA1120616940EA11605549D6
:1027300048620A2204F1300152482830FEF79BF922
:102740005049206848630846D4F862108163D4F881
:102750006610C163B4F86A10A0F840104230616896
:102760000160A1684160A18901816421A069B0FB79
:10277000F1F000066422A169B1FBF2F101F47F419E
:1027800040EA0120A169B1FBF2F101F47F0140EAC6
:102790001120A169B1FBF2F140EA11603949C86426
:1027A000142204F13A0137485430FEF71FF914227D
:1027B00004F14E0133486830FEF718F994F87800B8
:1027C0000006B4F8781001F47F4140EA0120A16FBF
:1027D00001F47F0140EA1120A16F40EA116029490C
:1027E0000865297941F2010242EAC11022222549F5
:1027F00003F07EFE297941F2120242EAC11004225E
:102800002049243103F074FE297941F2140242EA8E
:10281000C1100A221B49283103F06AFE297941F2CE
:10282000190242EAC11004221649343103F060FE55
:10283000297941F21B0242EAC1100A2211493831BA
:1028400003F056FE29794FF4815242EAC1100E225C
:102850000C49423103F04CFE297941F2270242EA49
:10286000C11004220749503103F042FE297941F298
:10287000500242EAC11028220249543103F038FEC6
:10288000012070BD604100201CB50848016800911E
:102890008188ADF8041080798DF806004FF440501F
:1028A000DDE90012FFF7CCFD00201CBD0000002078
:1028B0001CB504460748016800918188ADF80410F2
:1028C00080798DF806002046DDE90012FFF714FD3F
:1028D00000201CBD0000002070B504460D4604B960
:1028E00070BD05B125600C480460208A0B49088042
:1028F00009490968087903F0B9FD07480068C0680C
:1029000040B105480068C068401C18B10249096818
:10291000C868804700BFE3E7E8080020D00D00202A
:102920002DE9F04107460E46144606B10CB9BDE844
:10293000F08100F01DF8E11CC8B201F0D9FA822044
:1029400001F0D6FA384601F00BFB002504E0705D7B
:1029500001F0CEFA681CC5B2A542F8DBFF2001F0F9
:10296000C7FAFF2001F0C4FA01F0E4FA00BFDEE785
:1029700010B545F6A52001F0F3FA10BD10B516F01C
:1029800083F8012010F066F816F0A8F810BD10B515
:1029900016F07AF84FF480600DF09CFC18B14FF4FB
:1029A000806010F057F84FF400600DF093FC18B100
:1029B0004FF4006010F04EF84FF480500DF08AFC98
:1029C00018B14FF4805010F045F84FF400500DF05E
:1029D00081FC18B14FF4005010F03CF84FF48040E7
:1029E0000DF078FC18B14FF4804010F033F84FF43C
:1029F00000400DF06FFC18B14FF4004010F02AF8C1
:102A000016F06CF810BD10B516F03EF8022010F06C
:102A100021F816F063F810BD10B516F035F8042053
:102A200010F018F816F05AF810BD10B516F02CF882
:102A3000082010F00FF816F051F810BD10B516F080
:102A400023F8102010F006F816F048F810BD10B565
:102A500016F01AF820200DF03DFC10B120200FF0E8
:102A6000F9FF40200DF036FC10B140200FF0F2FFCE
:102A700080200DF02FFC10B180200FF0EBFF4FF401
:102A800080700DF027FC18B14FF480700FF0E2FF5A
:102A90004FF400700DF01EFC18B14FF400700FF0F1
:102AA000D9FF16F01BF810BD70B505460C4616464A
:102AB0000CB9002070BD012106488176617820782C
:102AC00041EA00210348C16100210348FFF704FFE8
:102AD0000120EFE75C380020C00A002001480068B0
:102AE00070470000E808002010B50446042C2DD0E3
:102AF00007DC7CB1012C14D0022C19D0032C48D156
:102B00001DE0052C29D0062C2ED0072C33D0FF2C0D
:102B10003FD137E0322224A126480068FEF72EF884
:102B200000BF322224A123480068FEF727F800BF27
:102B3000322227A11F480068FEF720F800BF32228A
:102B400028A11C480068FEF719F800BF32222CA10A
:102B500018480068FEF712F800BF32222FA115486E
:102B60000068FEF70BF800BF322238A11148006858
:102B7000FEF704F800BF322239A10E480068FDF7C5
:102B8000FDFF00BF32223DA10A480068FDF7F6FFB5
:102B900000BF322242A107480068FDF7EFFF00BFE7
:102BA00000BF0448006810BD537563636573732EDE
:102BB00000000000E00F00204572726F7220696E05
:102BC00020636F6D6D756E69636174696F6E2E0041
:102BD000436F6C6C6973696F6E20646574656374B0
:102BE00065642E0054696D656F757420696E20638D
:102BF0006F6D6D756E69636174696F6E2E00000094
:102C00004120627566666572206973206E6F74205C
:102C100062696720656E6F7567682E00496E74651E
:102C2000726E616C206572726F7220696E207468BA
:102C30006520636F64652E2053686F756C64206E29
:102C40006F742068617070656E2E0000496E766149
:102C50006C696420617267756D656E742E0000008A
:102C6000546865204352435F4120646F6573206E52
:102C70006F74206D617463682E00000041204D491F
:102C800046415245205049434320726573706F6E30
:102C90006465642077697468204E414B2E00000003
:102CA000556E6B6E6F776E206572726F72000000EA
:102CB00010B572B6002404E0204612F0B5FA601C8C
:102CC00044B24E2CF8DD00204FF0E021086148614D
:102CD000886108484068084908600649086880F328
:102CE000088800BF08460549086003480068804717
:102CF00010BD0000002003082800002008ED00E0BF
:102D0000704770477047704770477047704770470B
:102D100070477047704770477047704770477047FB
:102D200070477047704770477047704770477047EB
:102D300070477047704770477047704770477047DB
:102D40007047704770477047704700002DE9F041A9
:102D5000FEB005460F46144604F10F001FFA80F836
:102D6000002607B11CB900207EB0BDE8F0817D20AF
:102D70008DF80400D0208DF8050008F0FF008DF8D4
:102D800006004FEA18208DF8070000208DF8080093
:102D90008DF809008DF80A008DF80B0025480078A1
:102DA0008DF80C0023480088000A8DF80D0021489A
:102DB0000068000C8DF80E001E480068000E8DF8AB
:102DC0000F00E8B28DF81100280A8DF81000224695
:102DD00039460DF11200FDF709FE04F10E0081B233
:102DE00001A80FF056FC04F10E0101AA5054481C32
:102DF00082B201A9002001F0F3F904F10F010EA045
:102E000015F088FE002606E001A8815D0FA015F0F0
:102E100081FE701C86B204F10F00B042F4DC0DA0FC
:102E200015F078FE03480068401C02490860012044
:102E30009AE70000DC0400207478206C656E3A2567
:102E4000642C747820646174613A00002530327813
:102E5000200000000D0A000010B504462078042868
:102E600018D0052804D006281BD0072829D120E037
:102E7000FFF7FAF868B10120134988700021134860
:102E8000FFF72AFD322019F06DFB962164201BF01C
:102E900033FE17E001200C498870002001F0E2FFAA
:102EA00010E0012008498870FEF756FDFEF744FE49
:102EB00008E001200449887005490648FFF70CFD29
:102EC00000E000BF00BF10BDD00D0020B00B0020FF
:102ED000D40A00202C0D002010B5044620780228CA
:102EE00008D1002005498870054908680021FFF7CE
:102EF000F3FC00E000BF00BF10BD0000D00D0020BB
:102F0000880B002010B504462078022808D1002044
:102F100005498870054908680021FFF7DDFC00E0DD
:102F200000BF00BF10BD0000D00D00209C0B002092
:102F30000178012905D0032902D0042909D104E030
:102F400000BF0021044A917004E00021024A917000
:102F500000E000BF00BF7047D00D002010B5044650
:102F6000207804281FD006DC01280BD002280DD0C1
:102F7000032840D112E00F2819D0102823D011289F
:102F800039D12CE000201D49887035E01C48FFF73E
:102F90008FFC00211A48FFF79FFC2DE00021194803
:102FA000FFF79AFC28E0002001F05CFF24E00120FC
:102FB0001549087601F064FE4FF4FA6019F0D2FA70
:102FC00012F0C0F918E002200F49087601F058FE0F
:102FD0004FF4FA6019F0C6FA12F0B4F90CE00320CD
:102FE0000949087601F04CFE4FF4FA6019F0BAFA7C
:102FF00012F0A8F900E000BF00BF10BDD00D002006
:10300000D80B0020B00B0020B043002010B50446C0
:10301000207806281CD006DC01280BD002280DD011
:1030200003283CD10FE007281BD0082825D0122800
:1030300035D12EE000201B49887031E000211A486C
:10304000FFF74AFC2CE000211848FFF745FC27E079
:10305000FFF796F84FF4FA6019F084FA12F072F95B
:103060001EE001201249487601F00AFE4FF4FA6092
:1030700019F078FA12F066F912E000200C4948764F
:1030800001F0FEFD4FF4FA6019F06CFA12F05AF9F3
:1030900006E00F2141F2057003F000FB00E000BFE5
:1030A00000BF10BDD00D0020C40B0020EC0B002091
:1030B000B043002010B504462078012802D0022831
:1030C00009D103E000200549887005E0002104488B
:1030D000FFF702FC00E000BF00BF10BDD00D0020D4
:1030E000D80B002010B50446207806281FD006DC37
:1030F000032809D004280AD005283AD10FE0072870
:103100001DD00F2835D122E0FEF7F6FF32E0022075
:103110001949887000211948FFF7DEFB2AE00220D8
:103120001549887000211648FFF7D6FB22E00220DF
:103130001149887000211348FFF7CEFB1AE00220E6
:103140000D49887000211048FFF7C6FB12E0FEF71A
:103150008BFF68B101200849887000210B48FFF7F8
:10316000BBFB322019F0FEF9962164201BF0C4FC51
:1031700000E000BF00BF10BDD00D0020140C0020E7
:10318000280C00203C0C0020500C0020B00B00202C
:1031900010B5044620780A2820D006DC022809D081
:1031A00008280FD009282BD112E00B281CD00E289C
:1031B00026D11FE000201449887000211348FFF732
:1031C0008BFB1EE0032141F68D0003F069F918E046
:1031D000062141F68D0003F063F912E0092141F662
:1031E0008D0003F05DF90CE00C2141F68D0003F039
:1031F00057F906E0012141F68D0003F04FFA00E097
:1032000000BF00BF10BD0000D00D0020000C00204A
:1032100010B5044620780A2820D006DC022809D000
:1032200008280FD009282BD112E00B281CD00E281B
:1032300026D11FE000201449887000211348FFF7B1
:103240004BFB1EE0052141F60D1003F029F918E0B3
:103250000A2141F60D1003F023F912E00F2141F687
:103260000D1003F01DF90CE0142141F60D1003F0D0
:1032700017F906E0012141F60D1003F00FFA00E006
:1032800000BF00BF10BD0000D00D0020000C0020CA
:1032900010B5044620780A2820D006DC022809D080
:1032A00008280FD009282BD112E00B281CD00E289B
:1032B00026D11FE000201449887000211348FFF731
:1032C0000BFB1EE01E2141F68D1003F0E9F818E01B
:1032D0003C2141F68D1003F0E3F812E05A2141F64B
:1032E0008D1003F0DDF80CE0782141F68D1003F02D
:1032F000D7F806E0012141F68D1003F0CFF900E088
:1033000000BF00BF10BD0000D00D0020000C002049
:1033100010B50446207805280AD1FEF7A5FE30B185
:1033200001200549887000210448FFF7D5FA00E024
:1033300000BF00BF10BD0000D00D0020B00B00206A
:1033400010B5044620780A2820D006DC022809D0CF
:1033500008280FD009282BD112E00B281CD00E28EA
:1033600026D11FE000201449887000211348FFF780
:10337000B3FA1EE0062141F60D2003F091F818E0A3
:103380000C2141F60D2003F08BF812E0122141F6DA
:103390000D2003F085F80CE0172141F60D2003F015
:1033A0007FF806E0012141F60D2003F077F900E0F7
:1033B00000BF00BF10BD0000D00D0020000C002099
:1033C00010B504462078022805D104490868002178
:1033D000FFF782FA00E000BF00BF10BDD80B00204D
:1033E00010B504462078012804D0022806D01228FF
:1033F0000ED107E00020084988700AE00020064945
:10340000887006E00F2141F6053003F047F900E02F
:1034100000BF00BF10BD0000D00D002010B5044655
:103420002078022805D1044908680021FFF754FAE2
:1034300000E000BF00BF10BDD80B002010B504464F
:103440002078022805D1044908680021FFF744FAD2
:1034500000E000BF00BF10BDD80B002010B504462F
:103460002078052811D1FEF7FFFD68B10120084939
:10347000887000210748FFF72FFA322019F072F800
:10348000962164201BF038FB00E000BF00BF10BD98
:10349000D00D0020B00B00200178012903D10021BC
:1034A000024A917000E000BF00BF7047D00D0020BD
:1034B00010B504462078012804D0022806D004283C
:1034C0000CD107E000200749887008E0012001F0D6
:1034D000C9FC04E0022001F0C5FC00E000BF00BF11
:1034E00010BD0000D00D002010B504462078012842
:1034F00002D0022808D103E000200549887004E0CA
:10350000012001F0AFFC00E000BF00BF10BD0000D3
:10351000D00D002010B504462078042809D00528D5
:103520000CD101200749887007490848FFF7D4F9F2
:1035300005E005490648FFF7CFF900E000BF00BFEE
:1035400010BD0000D00D0020FC0A0020B00B0020B0
:10355000240B002010B504462078062818D2DFE896
:1035600000F01703070B0F1300200B49887010E0C1
:103570000120FEF7DFFB0CE00120FEF761FB08E015
:103580000A20FEF7D7FB04E00A20FEF759FB00E013
:1035900000BF00BF10BD0000D00D002010B50446D4
:1035A0002078012804D0022806D003280CD107E097
:1035B00000200749887008E00120FEF7BBFB04E00B
:1035C0000A20FEF7B7FB00E000BF00BF10BD0000FF
:1035D000D00D00200178012902D0022908D103E092
:1035E0000021054A917000BF0021034A917000E05C
:1035F00000BF00BF70470000D00D002001780129F6
:1036000002D0022908D103E00021054A917004E0AC
:103610000021034A917000E000BF00BF7047000026
:10362000D00D00200178012902D0022908D103E041
:103630000021054A917004E00021034A917000E0E6
:1036400000BF00BF70470000D00D002001780129A5
:1036500002D0022908D103E00021054A917004E05C
:103660000021034A917000E000BF00BF70470000D6
:10367000D00D00200178012902D0022908D103E0F1
:103680000021054A917004E00021034A917000E096
:1036900000BF00BF70470000D00D00200178012955
:1036A00002D0022908D103E00021054A917004E00C
:1036B0000021034A917000E000BF00BF7047000086
:1036C000D00D002010B504462078042809D0052824
:1036D0000CD101200749887007490848FFF7FCF81A
:1036E00005E005490648FFF7F7F800E000BF00BF16
:1036F00010BD0000D00D0020900D0020B00B002068
:10370000240B00207047000010B5044620780228E2
:1037100005D1044908680021FFF7DEF800E000BF8A
:1037200000BF10BD240B002010B5044620780228ED
:1037300005D1044908680021FFF7CEF800E000BF7A
:1037400000BF10BD380B002010B5044620780228B9
:1037500008D1002005498870054908680021FFF755
:10376000BBF800E000BF00BF10BD0000D00D00207E
:103770004C0B002010B504462078022808D1002008
:1037800005498870054908680021FFF7A5F800E0A1
:1037900000BF00BF10BD0000D00D0020600B002056
:1037A00010B504462078022808D100200549887009
:1037B000054908680021FFF78FF800E000BF00BF4F
:1037C00010BD0000D00D0020740B002070B5054620
:1037D0000E460DB9002070BD172E01D00020FAE76B
:1037E000172229462046FDF701F9207C022801DB3B
:1037F0000020F0E7217CC1EBC10202EB01110B4A72
:10380000881817222946FDF7F1F8207CC0EBC0018B
:1038100001EB001005490844B0F8110018B9012067
:10382000217C034A50540120D5E7000029340020B0
:103830003704002002460120704770B504460E464A
:103840000CB1022E01D0002070BD25462878022838
:1038500001DB0020F8E76878012805D100231A462B
:103860003946062011F0C2FA0120EDE70246012098
:103870007047000070B505460C460DB1022C01D012
:10388000002070BD0448007820B100F005FB002046
:10389000014908700120F4E73A04002070B505469C
:1038A0000E46112E01D0002070BD2C7C022C01DBB5
:1038B0000020F9E700231A462146072011F096FA66
:1038C0000120F1E770B505460C46102C01D0002010
:1038D00070BD00231A461946082011F087FA01200E
:1038E000F6E700002DE9F04198B00746884600242D
:1038F0000025002015901690179000265421684648
:10390000FDF715F91FB9002018B0BDE8F08138782F
:103910005B490870084600780C2808DCA8F1010013
:103920000978C900884202D15548007808B90020BA
:10393000EAE74246791C5348FDF758F851480078A9
:1039400050B103205049087000231A46194605203B
:1039500011F04CFA0020D7E7002407E0494800EBBB
:10396000C40040782844C5B2601CC4B24448007802
:103970008442F3DB302D0AD0032043490870002332
:103980001A461946052011F031FA0020BCE7002044
:103990003D4908703A4800788DF850000026002410
:1039A00036E0002510E0374800EBC4004088354978
:1039B00001EBC5014988884204D115A8405D15A9CD
:1039C000085503E0681CC5B2A542ECDB00BFA54268
:1039D0001CD115A80655701CC6B22A4800EBC400BD
:1039E00081884FF47A704143701E04AA42F8201077
:1039F000244800EBC40040884FF47A714843711E9C
:103A00004DF82100042E01DD00207DE7601CC4B2CA
:103A10001B4800788442C4DB0025002411E015AB6C
:103A20001A5D184B03EBC403597808AB5819FDF71E
:103A300054F8144800EBC40040782844C5B2601C18
:103A4000C4B20F4800788442E9DB512269460F482E
:103A5000FCF7CCFF512200210D4800680DF066FBF9
:103A600051230A4A00210A4800680DF007FD00238F
:103A70001A461946052011F0B9F9012044E7000063
:103A800039040020C9330020300400201D510020DB
:103A9000D80D002070B505460E460DB1212E01D07F
:103AA000002070BD212229460A48FCF79FFF0948E3
:103AB00004780020C4EBC401074A02F82100C4EBDB
:103AC000C40102EB810108760021204604F034FC99
:103AD0000120E6E77E330020FC2E00202DE9F04790
:103AE00004460D4603270CB1092D02D00020BDE885
:103AF000F0872A4621461E48FCF778FF1C480078CC
:103B000008B90020F3E701210020FEF7ADF91948BC
:103B10000078042801D002F0D5FD15490879FEF798
:103B200001FB80461249C878FEF7FCFA814610492D
:103B30008878FEF7F7FA00F5FA66424649463046BD
:103B400019F0C6FD0A49C879FEF7ECFA064608499D
:103B50008879FEF7E7FA804605494879FEF7E2FAE8
:103B600081463246414619F0EFFD0120BFE70000D3
:103B7000953200205C38002070B505460E462C4674
:103B80000DB13F2E01D0002070BD002011490870FA
:103B90000876206810490860A079A8B93F2221461C
:103BA0000E48FCF723FF00210846FEF7A7F9002383
:103BB0001A461946184611F019F90023042219462D
:103BC000012019F060FC03E0A079012800D100BFBA
:103BD0000120D9E7FC2E00202C0400209E3200207A
:103BE00070B504460E4625460CB1312E01D000209A
:103BF00070BD287C60B900231A461946032011F0D5
:103C0000F5F8002304221946022019F03CFC06E0D6
:103C1000287C012801D100BF01E00020E8E7012055
:103C2000E6E7000010B55D4C0020FDF705FF012818
:103C300001D0002010BD81215948FCF756FF102209
:103C400021465748FCF7D2FE012055490874002050
:103C500048740220887453480078042802D1022056
:103C6000C87418E04F480078062802D14C49C8743F
:103C700011E04C480078052803D107204849C87452
:103C800009E048480078012802D14549C87402E09B
:103C900000204349C8744248C07C022878D141487A
:103CA000D0F802026421B0FBF1F03D49C1F81A00DE
:103CB0003A48407E012814D13A4800690A21B0FBF5
:103CC000F1F03749C1F845003648C089A1F827000E
:103CD000344880890A2190FBF1F03149A1F82D0088
:103CE00027E0314890ED030ADFED300A20EE200A8C
:103CF000BCEEC00A10EE100A2949C1F845002A4856
:103D000090ED010AF2EE040A20EE200ABCEEC00A91
:103D100010EE100AA1F82700234890ED000AF2EEF9
:103D2000040A20EE200ABCEEC00A10EE100AA1F828
:103D30002D0000201A4981F826001A48D0F8020206
:103D40006421B0FBF1F01649C1F83D001548406B05
:103D50000A21B0FBF1F01249C1F839000846C08BC6
:103D6000098C48430A2190FBF1F00D49C1F87D0010
:103D700020220F490A485030FCF738FE00201BF083
:103D800041FF0849D1F84610401A0549C1F83500ED
:103D9000812203496820FEF7D9FF4BE7B04300209A
:103DA000F82F00205C380020443D00200000C8426D
:103DB000B33200207047000010B50E4C0020FDF714
:103DC0003BFE012801D0002010BD102221460A48E8
:103DD000FCF70CFE0948008807490882074800885C
:103DE000401C06490880122203496620FEF7AEFFF8
:103DF000EAE70000B0430020E62F0020E0040020A6
:103E000010B59AB01048007818B10F48007804280F
:103E100002DD00201AB010BD0B4800788DF80400B8
:103E200060220A490DF10500FCF7E0FD0648007824
:103E3000012101EBC000C4B2224601A94FF4A460E5
:103E4000FEF784FFE6E7000039040020C9330020B4
:103E500010B50F4C0020FDF7EFFD012801D1002027
:103E600010BD00200B4908804620488010222146C2
:103E70000848001DFCF7BAFD00200649087501201E
:103E8000487681F821004C226A20FEF75FFFE7E7C1
:103E9000B0430020342F002010B50B4C0020FDF75C
:103EA000CBFD012801D1002010BD1022214607487A
:103EB000FCF79CFD002005490874112240F24E4099
:103EC000FEF744FFF0E70000B043002084320020FA
:103ED000014602480174012070470000843200202E
:103EE0000020024981F8C80070470000F43E00201D
:103EF000094991F8C82091F8C810491C064B83F86D
:103F0000C8101946885491F8C810C82903D3002155
:103F10001A4682F8C8107047F43E002010B50446D7
:103F20004FF6FF7101EA144000F01AF8A0B200F059
:103F300017F810BD10B5084890F8C81007488268F7
:103F400005489047FFF7CCFF142018F00BFB024800
:103F500090F8C80010BD0000F43E0020F40D0020D1
:103F600010B50446200AFFF7C3FFE0B2FFF7C0FF19
:103F700010BD000070B505460C46094805600948AB
:103F8000046009A013F09EFA094908600846006819
:103F900020B95D22074908A012F0EEFF70BD0000B5
:103FA000D40F0020D80F0020737069323000000059
:103FB000DC0F0020B82E02087370695F6465765FBD
:103FC0007263353232000000FEB507460C461546D6
:103FD00014B12878122801DA0420FEBD30202070A8
:103FE0006770A21C0221204601F0ACFB06460EB110
:103FF0003046F2E70120002100912B462246CDE910
:1040000001100421204601F001FEE6E730B585B03D
:1040100005460C46E0B28DF808008DF80000C4F3A8
:1040200007208DF809008DF80100C4F307408DF8D2
:104030000A008DF80200200E8DF80B008DF80300A9
:104040009DF80000C043C0B28DF804009DF8010047
:10405000C043C0B28DF805009DF80200C043C0B255
:104060008DF806009DF80300C043C0B28DF807002C
:104070008DF80E508DF80C50E843C0B28DF80F004B
:104080008DF80D0010226946284600F002F805B0B0
:1040900030BDF8B507460D4616460DB1102E01DAB3
:1040A0000620F8BDA0208DF800008DF801700022D8
:1040B0000221684601F0B0FC04460CB12046F0E74E
:1040C00000223146284601F0A7FC04460CB12046E8
:1040D000E7E70020E5E7000070B504460D46164608
:1040E00003F0FEF900202A49087013E0642018F05C
:1040F00039FA2848C07EC0F3001030B12548C07E90
:1041000020F010002349C87608E021480078401CC0
:104110001F4908701E4800781428E7D300BF1C48C8
:104120000078142804D31CA014F0F4FC002070BD07
:1041300032462946204600F0F7F80020144908705E
:1041400011E0642018F00EFA12481C30005D0128BE
:1041500004D100210F481C30015508E00C480078BC
:10416000401C0B4908700A4800783228E9D300BF88
:1041700007480078322804D310A014F0CBFC0020AC
:10418000D5E701210348401C01550120CFE700007D
:1041900083000020E0250020726573706F6E64203C
:1041A000636D643A4154434D445F4E45544F50450E
:1041B0004E2074696D656F757400000072657370D0
:1041C0006F6E6420636D643A4154434D445F4349CC
:1041D000504F50454E2074696D656F757400000036
:1041E0002DE9F04391B004460D461646002700BF66
:1041F0003C2102A8FCF79BFC234631A23C2102A8EB
:104200000096FCF78BF9804608F1010038B9414669
:1042100030A0FCF777F9002011B0BDE8F0834FF033
:10422000FF313448006815F007FC334890F832003D
:10423000012832DD0A2C00DC2DB92E48006815F06B
:104240000BFB0020E8E702A8FCF75AFB1FFA80F9F5
:104250002A484946826802A89047322018F082F91D
:104260000DE02448006815F0F7FA2548005D0128A4
:1042700003D100212248015503E0781CC7B2642F06
:10428000EFD300BF642F08D11EA0FCF73BF91948FB
:10429000006815F0E1FA0020BEE718483146826850
:1042A00028469047322018F05DF91248006815F052
:1042B000D3FA4FF47A7018F055F90120ACE70000FA
:1042C00041542B43495053454E443D25642C2564AD
:1042D0000D0A0000736E7072696E746620657272EA
:1042E0006F722C20746865206C656E2069732025C0
:1042F00064000000480300204E030020440000201A
:1043000006260020726573706F6E6420636D643AD8
:104310004154434D445F53454E4441434B207469DF
:104320006D656F75740000002DE9F04391B005468E
:104330000E4617460EB10A2D03DD002011B0BDE870
:10434000F0832B4611A23C2102A8CDE90067FCF7BF
:10435000E5F80446601C28B9214614A014F0DAFBE5
:104360000020EBE702A8FCF7CBFA1FFA80F84146E1
:1043700002A803F099FE814602A8FCF7C1FA814524
:1043800001D10120DAE70020D8E7000041542B4397
:1043900049504F50454E3D25642C22544350222C09
:1043A000222573222C25640D0A000000736E7072A2
:1043B000696E7466206572726F722C207468652055
:1043C0006C656E2069732025640000007CB505468D
:1043D0000020FDF79DFB0446002001905520009031
:1043E0000DB900207CBD287808B90020FAE74FF409
:1043F000FA6018F0B7F802F0CFFF4FF4FA6018F047
:10440000B1F803F045F84FF47A7018F0ABF802F009
:10441000E7FF0020974908600FE0642018F0A2F839
:104420009548807D012803D100209349887508E0D4
:1044300090480068401C8F4908608E480068142826
:10444000EBD300BF8B480068142804D18BA014F074
:1044500061FB0020C6E7284602F0D6FF0020854910
:1044600008600FE0322018F07DF88348C07D0128F5
:1044700003D100208049C87508E07E480068401CD0
:104480007C4908607B4800682828EBD300BF794846
:104490000068282804D179A014F03CFB0020A1E793
:1044A00002F088FF0020734908600FE0322018F006
:1044B00059F87148007E012803D100206E49087622
:1044C00008E06C480068401C6A4908606948006858
:1044D0002828EBD300BF67480068282804D16FA0C4
:1044E00014F018FB00207DE72068B0F5483F04D9A0
:1044F00072A014F00FFB002074E718F0B9F97449AA
:1045000008600846006873490860A4E020680199C3
:10451000884201D2002065E72068019988421DD1B8
:10452000042201216C4800680CF000FE042301AA5B
:104530000121694800680CF0A1FF01204E498876EE
:1045400001220021644800680CF0F0FD01236A4656
:104550000021614800680CF091FF81E0206801991A
:10456000401AB0F57A7F04D94FF47A7002F0E0FF78
:1045700004E02168019A881A02F0DAFF18F078F94D
:10458000534908603C48807E012821D12068019968
:1045900088421CD1042201214F4800680CF0C6FD5E
:1045A000042301AA01214C4800680CF067FF012098
:1045B0003149887601220021474800680CF0B6FD99
:1045C00001236A460021444800680CF057FF47E089
:1045D0003F4800683F490968401A4049884204D969
:1045E0003FA014F097FA0020FCE600202149086063
:1045F00023E0322017F0B6FF1F48407E012817D174
:1046000000201D49487662680199491D32480068BA
:104610000CF08CFD04F1080263680199491D2E48D5
:1046200000680CF02BFF606801990844019008E0D5
:1046300010480068401C0F4908600E480068282890
:10464000D7D300BF0B480068282804D324A014F057
:1046500061FA0020C6E60848807E00283FF456AF85
:1046600000BF02F015FF4FF47A7017F07BFF0120B6
:10467000B8E6000074000020E02500207265737029
:104680006F6E6420636D643A48545450494E4954E7
:104690002074696D656F7574000000007265737039
:1046A0006F6E6420636D643A4854545020474554FB
:1046B0002074696D656F7574000000006874747013
:1046C000206461746120746F6F206C656E0000005F
:1046D000780000207C000020F00D0020C0D40100F4
:1046E000726573706F6E6420636D643A4854545001
:1046F00020524541442074696D656F757400000057
:1047000010B502F08DFD00206D49087013E06420A3
:1047100017F028FF6B48C07E00F0010030B16948F7
:10472000C07E20F001006749C87608E06448007840
:10473000401C63490870624800781428E7D300BF22
:104740005F480078142804D15FA014F0E3F900203A
:1047500010BD02F00FFE00205949087013E06420DC
:1047600017F000FF5748C07EC0F3400030B15548F5
:10477000C07E20F002005349C87608E05048007817
:10478000401C4F4908704E4800781428E7D300BFFA
:104790004B480078142804D153A014F0BBF9002032
:1047A000D6E702F023FD00204549087013E064209D
:1047B00017F0D8FE4348C07EC0F3800030B14148B6
:1047C000C07E20F004003F49C87608E03C480078ED
:1047D000401C3B4908703A4800781428E7D300BFD2
:1047E00037480078142804D147A014F093F900202A
:1047F000AEE74E4890F83200012802D102F066FD83
:1048000001E002F081FE4FF4FA7017F0ABFE0020D9
:104810002B49087013E0642017F0A4FE2948C07EDD
:10482000C0F3C00030B12748C07E20F00800254901
:10483000C87608E022480078401C214908702048CA
:1048400000781428E7D300BF1D480078142804D14D
:1048500037A014F05FF900207AE7344890F832006E
:10486000012827DD02F0A4FE00201549087013E09E
:10487000642017F077FE1348C07EC0F3401030B1BB
:104880001048C07E20F020000E49C87608E00C4891
:104890000078401C0A490870094800781428E7D3BA
:1048A00000BF07480078142804D121A014F032F981
:1048B00000204DE701200349087000BF48E70000D1
:1048C00081000020E0250020726573706F6E642007
:1048D000636D643A4154434D445F43494D492074EC
:1048E000696D656F75740000726573706F6E64201A
:1048F000636D643A4154434D445F4353512074699E
:104900006D656F7574000000726573706F6E642062
:10491000636D643A4154434D445F434744434F4EB3
:10492000542074696D656F75740000004E0300209B
:10493000726573706F6E6420636D643A4154434DC9
:10494000445F4349504D4F44452074696D656F7510
:10495000740000002DE9F04782460C4615464FF0E2
:1049600000090026184F1948D0F81C800CB1042DFE
:1049700002D00020BDE8F08720780006617840EA88
:104980000140A17840EA0120E17840EA0106BE42F8
:1049900007D10F4801680F48FDF79EFF00F070F93E
:1049A00010E0464509D100210B48FDF795FF00F0C6
:1049B00067F90948FDF77CFF04E0054801680748EE
:1049C000FDF78AFF0120D5E738900D00B0430020A5
:1049D000B00B0020C40B0020780C0020B40C002089
:1049E0002DE9F04107460D46164615B90020BDE8F1
:1049F000F081002404E030201A490855601CC4B23C
:104A0000102CF8DB102E00DD102600240CE0285DB1
:104A1000302806DB285D392803DC285D114908555C
:104A200000E003E0601CC4B2102CF0DB00BF2522C4
:104A300000210D4800680CF079FB2523094A00216C
:104A4000094800680CF01AFD00F01AF9322017F03E
:104A500089FD0E22034941F2500001F049FD012079
:104A6000C5E70000B0430020D40D0020FEB5074686
:104A70000C4615460CB1022D01D00020FEBD667813
:104A800010480674C07C0F49897C0E4A527CCDE9DF
:104A9000002102900B48037C0BA210210D48FBF76C
:104AA0003DFD252200210C4800680CF03FFB25232A
:104AB000044A0021084800680CF0E0FC00F0E0F82F
:104AC0000120DBE7B043002025642E25642E2564F9
:104AD0002E25640070030020D40D0020FEB507468B
:104AE0000C4615460CB1022D01D00020FEBD6678A3
:104AF00010484674C17C807C0E4A527CCDE900206F
:104B000002910C48037C0CA210210E48FBF706FD15
:104B1000252200210C4800680CF008FB2523054ADB
:104B20000021094800680CF0A9FC00F0A9F8012058
:104B3000DCE70000B043002025642E25642E2564A8
:104B40002E25640070030020D40D0020FEB507461A
:104B50000C4615460CB1022D01D00020FEBD667832
:104B600010488674C17C807C0E4A527CCDE90020BE
:104B700002910C48037C0CA210210E48FBF7CEFCDE
:104B8000252200210C4800680CF0D0FA2523054AA4
:104B90000021094800680CF071FC00F071F8012058
:104BA000DCE70000B043002025642E25642E256438
:104BB0002E25640070030020D40D0020FEB50746AA
:104BC0000C4615460CB1022D01D00020FEBD6678C2
:104BD0001048C674C17C807C0E4A527CCDE900200E
:104BE00002910C48037C0CA210210E48FBF796FCA6
:104BF000252200210C4800680CF098FA2523054A6C
:104C00000021094800680CF039FC00F039F8012057
:104C1000DCE70000B043002025642E25642E2564C7
:104C20002E25640070030020D40D00202DE9F041F2
:104C300007460C4616460CB1022E02D00020BDE8F5
:104C4000F0816078217840EA01250A4885820A4887
:104C5000058425220021094800680CF067FA252305
:104C6000044A0021054800680CF008FC00F008F830
:104C70000120E4E7B04300204E030020D40D0020C3
:104C800070B588B00020079000250026002402900F
:104C9000039004900090019010226D494FF4B4509D
:104CA00001F026FC6B49097941F2120242EAC11077
:104CB0000F21FDF795FB6648007D00026449898A53
:104CC00040EA1120079000BF0AE061481030005D03
:104CD000002141EA002005A921F81400601CC4B29B
:104CE000042CF2DBDDE90501CDE90201BDF81C0071
:104CF000ADF810005749097941F2090242EAC110A2
:104D00000A2202A901F0F4FB514890F820000006A5
:104D10004F49098C01F47F4140EA01204C49096A5E
:104D200001F47F0140EA11204949096A40EA11650E
:104D30004748007F00064649898B01F47F4140EADD
:104D400001204349C96901F47F0140EA112040492B
:104D5000C96940EA1166009501963F49097941F217
:104D6000050242EAC1100822694601F0C1FB3B4935
:104D7000097941F21E0242EAC110042201A901F0A0
:104D8000B7FB3348007E01280FD1012141F29E601C
:104D900001F072FB002141F2157001F06DFB002162
:104DA00041F2167001F068FB26E02948007E0228D7
:104DB0000FD1002141F29E6001F05EFB012141F222
:104DC000157001F059FB002141F2167001F054FBFF
:104DD00012E01F48007E03280ED1002141F29E60A0
:104DE00001F04AFB002141F2157001F045FB012161
:104DF00041F2167001F040FB1548407E01280AD1AF
:104E000001214FF4B55001F037FB002141F2A160C0
:104E100001F032FB0CE00E48407E48B900214FF40F
:104E2000B55001F029FB012141F2A16001F024FB02
:104E3000252200210A4800680CF078F92523044A4D
:104E40000021074800680CF019FB08B070BD000095
:104E5000B0430020C40B0020EC0B0020780C002095
:104E6000D40D00202DE9F043FBB080460025302111
:104E70006FA8FBF75CFEDC2138A8FBF758FEDC21AD
:104E800001A8FBF754FE002412E0FE48025D611CFD
:104E9000405C824203D06FA84455681CC5B2601CB8
:104EA0002F2803D16FA94855681CC5B2601CC4B235
:104EB0002F2CEADBE91705EB91718910A5EB810135
:104EC00031B92846E91705EB9171C1F3870706E070
:104ED0002846E91705EB91718910491CCFB2B8F14A
:104EE000000F03D10120E84908700DE0B8F1010F6F
:104EF00005D1E5480078401EE349087004E0E24827
:104F00000078401CE0490870FDF7E8FD0646DE48E1
:104F10000078002804DC00213068FDF7DDFC22E089
:104F2000D9480078B8420FD1D848864202D0D84834
:104F3000864204D13146D748FDF7CEFC13E000216C
:104F4000D448FDF7C9FC0EE0D048864202D0D048D4
:104F5000864204D13146D048FDF7BEFC03E0002173
:104F6000CD48FDF7B9FC00242FE06FA8005D401C80
:104F7000C0EB001040003C2190FBF1F0012101EB5F
:104F8000440138AA22F81100012000EB440038A99E
:104F900031F81000182805D10020012101EB44014F
:104FA00022F811006FA8005D401CC0EB001040000B
:104FB0003C2190FBF1F201FB1200012101EB4401C5
:104FC00001AA22F81100601CC4B2AC42CDDBAE488D
:104FD0000078012823D1B0490979020342EAC110BF
:104FE000002101F05DFAAC49097941F2010242EA7F
:104FF000C110002101F054FAA64909794FF48052FA
:1050000042EAC110002101F04BFAA249097941F2AC
:10501000010242EAC110002101F042FA43E09A4A3B
:105020001278921E072303EBC20238AB33F812103A
:10503000994A12794FF4805343EAC21001F030FAD2
:10504000914A1278921E072303EBC20201AB33F898
:105050001210914A127941F2010343EAC21001F0A1
:105060001FFA894A1278921E072303EBC20238AB5B
:1050700033F81210874A12794FF4805343EAC21072
:1050800001F00EFA804A1278921E072303EBC20247
:1050900001AB33F812107F4A127941F2010343EA5F
:1050A000C21001F0FDF9784A1278521E012303EB79
:1050B000C20238AB33F81210774A127941F2020378
:1050C00043EAC21001F0ECF96F4A1278521E012334
:1050D00003EBC20201AB33F812106F4A127941F2AE
:1050E000030343EAC21001F0DBF9674A1278521E4B
:1050F000032303EBC20238AB33F81210664A12796D
:1051000041F2040343EAC21001F0CAF95E4A127880
:10511000521E032303EBC20201AB33F812105E4AA6
:10512000127941F2050343EAC21001F0B9F9564A77
:105130001278521E052303EBC20238AB33F812106B
:10514000554A127941F2060343EAC21001F0A8F968
:105150004D4A1278521E052303EBC20201AB33F80D
:1051600012104D4A127941F2070343EAC21001F0CE
:1051700097F9454A1278521E072303EBC20238AB57
:1051800033F81210444A127941F2080343EAC2107C
:1051900001F086F93C4A1278521E072303EBC20243
:1051A00001AB33F812103C4A127941F2090343EA89
:1051B000C21001F075F9344A1278521E012303EB34
:1051C000C20238AB33F81210324A127941F20203AC
:1051D00043EAC21001F064F92B4A1278521E0123EF
:1051E00003EBC20201AB33F812102A4A127941F2E2
:1051F000030343EAC21001F053F9234A1278521E06
:10520000032303EBC20238AB33F81210214A1279A0
:1052100041F2040343EAC21001F042F91A4A12783B
:10522000521E032303EBC20201AB33F81210194ADA
:10523000127941F2050343EAC21001F031F9124A32
:105240001278521E052303EBC20238AB33F812105A
:10525000104A127941F2060343EAC21001F020F924
:10526000094A1278521E052303EBC20201AB33F840
:105270001210084A127941F2070343EAC21001F002
:105280000FF90BE03D510020090E0020C40B002057
:10529000D40A0020DC0C0020C80C0020FE4A127842
:1052A000521E072303EBC20238AB33F81210FB4A3D
:1052B000127941F2080343EAC21001F0F1F8F64A0C
:1052C0001278521E072303EBC20201AB33F812100F
:1052D000F24A127941F2090343EAC21001F0E0F800
:1052E000ED480078401E8006040ECFE1EA480078C1
:1052F000B84273DA012F71D0AC42FADAE11704EB4D
:1053000091718910A4EB810179BB6FA8015DE4481C
:10531000405CE349203901EB800000684FF47A716A
:10532000B0FBF1F01FFA80F9DE49097941F20A0277
:1053300042EAC110494601F0B3F86FA8015DD848B0
:10534000415C103800EB810000684FF47A71B0FBCB
:10535000F1F01FFA80F9D349097941F20E0242EACD
:10536000C110494601F09CF88EE1FFE7E11704EB1C
:1053700091718910A4EB8101012930D16FA8015DE1
:10538000C748405CC649203901EB800000684FF4F3
:105390007A71B0FBF1F01FFA80F9C249097941F244
:1053A0000B0242EAC110494601F07AF86FA8015D8C
:1053B000BB48415C103800EB810000684FF47A7103
:1053C000B0FBF1F01FFA80F9B649097941F20F02FA
:1053D00042EAC110494601F063F855E16FE0E11778
:1053E00004EB91718910A4EB810102292FD16FA8E0
:1053F000015DAB48405CAA49203901EB80000068A0
:105400004FF47A71B0FBF1F01FFA80F9A5490979E0
:1054100041F20C0242EAC110494601F041F86FA87E
:10542000015D9F48415C103800EB810000684FF43B
:105430007A71B0FBF1F01FFA80F99A49097941F2CB
:10544000100242EAC110494601F02AF81CE1E117B6
:1054500004EB91718910A4EB8101032984D16FA819
:10546000015D8F48405C8E49203901EB8000006867
:105470004FF47A71B0FBF1F01FFA80F9894909798C
:1054800041F20D0242EAC110494601F009F86FA845
:10549000015D8348415C103800EB810000684FF4E7
:1054A0007A71B0FBF1F01FFA80F97E49097941F277
:1054B000110242EAC110494600F0F2FFE4E07648EA
:1054C0000078B84289D1AC4287DAE11704EB9171D8
:1054D0008910A4EB810179BB6FA8015D7048405C25
:1054E0006F49203901EB800000684FF47A71B0FBFE
:1054F000F1F01FFA80F96949097941F20A0242EA9A
:10550000C110494600F0CCFF6FA8015D6448415CC2
:10551000103800EB810000684FF47A71B0FBF1F0B5
:105520001FFA80F95D49097941F20E0242EAC11081
:10553000494600F0B5FFA7E0FFE7E11704EB9171E2
:105540008910A4EB810101292FD16FA8015D544876
:10555000405C5349203901EB800000684FF47A71B8
:10556000B0FBF1F01FFA80F94C49097941F20B02C6
:1055700042EAC110494600F093FF6FA8015D484818
:10558000415C103800EB810000684FF47A71B0FB89
:10559000F1F01FFA80F94149097941F20F0242EA1C
:1055A000C110494600F07CFF6EE0E11704EB9171F9
:1055B0008910A4EB810102292FD16FA8015D384821
:1055C000405C3749203901EB800000684FF47A7164
:1055D000B0FBF1F01FFA80F93049097941F20C0271
:1055E00042EAC110494600F05BFF6FA8015D2C48FC
:1055F000415C103800EB810000684FF47A71B0FB19
:10560000F1F01FFA80F92549097941F2100242EAC6
:10561000C110494600F044FF36E0E11704EB9171F8
:105620008910A4EB810103292ED16FA8015D1C48CC
:10563000405C1B49203901EB800000684FF47A710F
:10564000B0FBF1F01FFA80F91449097941F20D021B
:1056500042EAC110494600F023FF6FA8015D1048DF
:10566000415C103800EB810000684FF47A71B0FBA8
:10567000F1F01FFA80F90949097941F2110242EA71
:10568000C110494600F00CFF601CC4B2024800780B
:10569000B4EB800F08E00000090E0020DC0C0020B5
:1056A0003D510020C80C0020FFF620AE01207BB049
:1056B000BDE8F08310B5282000F0FAF9044604F0A4
:1056C0000300032804D044F00301282000F0B6FAB8
:1056D00010BD2DE9F04188B005460E4617461C4620
:1056E0004FF0100800200590069007908DF8145098
:1056F0008DF8156000BF05E03A5C811C05AB5A547B
:10570000411CC8B20628F7DB00200AE021780144DA
:10571000091F621C525C00F1080105AB5A54411C80
:10572000C8B20428F2DB002001900290039004909C
:105730000C2305AA414600900E2000F04CF808B05A
:10574000BDE8F0812DE9F04105460F4614460021E1
:10575000022000F073FA04210A2000F06FFA802181
:10576000142000F06BFA2A463946122000F082FA23
:105770000321022000F062FA41F2883619E04FF06E
:1057800000080A2000F094F9804608F0040070B187
:105790000021022000F052FA442000F089F9207024
:1057A000422000F085F960700020BDE8F081701E95
:1057B00086B2002EE3DC0320F7E770B505460C4601
:1057C0000026284600F074F9064626EA0401284619
:1057D00000F034FA70BD2DE9FF4F83B08246DDE959
:1057E0001146109D0EB1307800E000200290139910
:1057F000029800EB0110C0B201900021022000F0DD
:105800001DFA7F21082000F019FA8021142000F0F1
:1058100015FA1220DDE9052100F02CFA1A20019971
:1058200000F00CFA5146022000F008FABAF10C0F11
:1058300003D180211A2000F0D5F94FF4FA6711E066
:10584000082000F035F9834604980BEA000000B107
:105850000AE00BF0010018B17F21082000F0EEF9FA
:10586000781E87B2002FEBDC00BF1FB9032007B002
:10587000BDE8F08F0C2000F01BF9804608F0130003
:1058800008B10120F3E74FF00009D5B1CCB11420E5
:1058900000F00EF983462078584501DA0420E6E747
:1058A00084F800B02A4659461220139B00F024F9D0
:1058B000182000F0FDF800F007090EB186F80090FE
:1058C00000BF08F0080008B10220D0E77DB374B330
:1058D000149860B32078012804D1B9F1040F01D1E4
:1058E000FF20C4E72078022802DBB9F1000F01D0C5
:1058F0000720BCE72078801EC1B26A462846FFF721
:1059000021FF8346BBF1000F01D05846AFE7207856
:10591000801E285C9DF80010884206D12078401E29
:10592000285C9DF80110884202D007209FE700E024
:1059300000BF00209BE7000038B50024332013F09F
:105940006FF92D49086000204FF4FA7302462B4985
:1059500000902BA017F0C2F82C49086001212C48B8
:10596000006814F0D5FB2B480068FF281ADA0221E2
:105970002848006814F086FB00212648006814F0CF
:1059800081FB00212348006814F0C2FB012016F0BF
:10599000E9FD01211F48006814F0BAFB322016F01F
:1059A000E1FD01240CB900F007F90021242000F0EA
:1059B00045F90021262000F041F92621482000F079
:1059C0003DF98021542000F039F9A921562000F03A
:1059D00035F90321582000F031F9E8215A2000F070
:1059E0002DF940212A2000F029F93D21222000F044
:1059F00025F9FFF75FFE38BDE00F002015FF010815
:105A000074696D2D7263353232000000E40F00209E
:105A1000D40F0020D80F00202DE9F0418CB00646AD
:105A20000C4617460EB1102C03DD06200CB0BDE865
:105A3000F0812246314607A8FAF7D8FF07A80219D5
:105A40002146FFF77FFE05460DB12846EEE7A01C74
:105A5000C4B24FF03008122006900020059005AA2D
:105A600006ABCDE902200193049007A8234607AABC
:105A7000414600900C20FFF7AEFE05461FB1032DF6
:105A800001D10020D2E70DB12846CFE79DF81800DC
:105A9000012803D19DF81400042801D00120C5E796
:105AA0009DF81C000A2801D0FF20BFE70020BDE7B9
:105AB0001CB504460020019000210D48006814F038
:105AC00027FB44F0800000900122694609480068E5
:105AD0000EF029FF012201A9064800680EF00AFF16
